:020000040800F2
:100000008006002081010008A3090008A10900085A
:1000100000000000000000000000000000000000E0
:10002000000000000000000000000000A709000818
:100030000000000000000000A5090008A909000850
:100040009301000893010008930100089301000840
:100050009301000893010008930100089301000830
:100060009301000893010008930100089301000820
:100070009301000893010008930100089301000810
:100080009301000893010008930100089301000800
:1000900093010008930100089301000893010008F0
:1000A00093010008930100089301000893010008E0
:1000B00093010008B50900089301000893010008A6
:1000C00000F002F800F04CF812A030C808382418EC
:1000D0002D18AC4201D100F043F80FCCA246AB463C
:1000E0000CA730CF2D1B083F3F197C427F1E544484
:1000F0002D090426F441641EAC4201D300F030F80F
:100100000126334200D0FB1A3343984754465D46DC
:10011000DFE700001C1400003C140000103A02D37A
:1001200078C878C1FAD8520701D330C830C101D598
:1001300004680C6070470000704700000023002432
:1001400000250026103A01D378C1FBD8520700D30E
:1001500030C100D50B6070471FB51FBD10B510BD75
:1001600000F04DF81146FFF7F7FF00F033FC00F008
:1001700065F803B4FFF7F2FF03BC00F06BF8000072
:100180000748804707480047FEE7FEE7FEE7FEE72F
:10019000FEE7FEE704480549054A064B70470000A4
:1001A000B1090008C100000880000020800600207E
:1001B000800200208002002001E004C0091F042901
:1001C000FBD28B0701D50280801CC90700D00270CA
:1001D000704700290BD0C30702D00270401C491E93
:1001E000022904D3830702D50280801C891EE3E71D
:1001F0000022EEE70022DFE7704770477047754640
:1002000000F024F8AE46050069465346C008C00019
:10021000854618B020B5FFF7BDFF60BCB646002686
:100220000027C0C5C0C5C0C5C0C5C0C5C0C5C0C504
:10023000C0C5403D490849008D46704710B5044689
:10024000C046C0462046FFF794FF10BD00487047E7
:100250001000002001491820ABBEFEE72600020076
:1002600070470000054800687047C0461A4800788B
:1002700002490A68101808607047C04678000020DC
:1002800080B58548016810220A430260032000F00F
:1002900005F800F023F8002080BDC04670B5044684
:1002A0007D20C0000C4E317801F01EF801468448D4
:1002B000006801F019F800F059FB0125032C08D85B
:1002C000002806D10025E84321462A4600F01CF804
:1002D0007460284670BDC0460000002082B0094806
:1002E00001680122114301600168114001910199E7
:1002F000110742680A434260406808400090009835
:1003000002B0704718100240002805D403220346AB
:1003100093430A4A9A1803E00C220240064BD21873
:100320008007C00E8901C9B28140FF238340106855
:10033000984308431060704714ED00E000E400E0CB
:10034000F0B581B0002846D00446534A1368012016
:1003500003408B4208D213680126B3430B4313605A
:10036000126832408A4237D1009121688A074B4B8C
:1003700010D54A0706D5072212021B681343474AC5
:100380001360464B1A68F0239A43A3681343434A09
:100390001360424BC90722D13F490868012630400B
:1003A000009A904205D90868B04308600868C00701
:1003B00012D12078400706D5072000021968814332
:1003C000E068084318601A681007810F3548022951
:1003D00012D2044650E00126304601B0F0BD6168FB
:1003E00003290DD01A1F02290FD0012912D112683A
:1003F00092030646F0D511E0032926D12A4C3BE0B2
:100400001A6B92030646E7D508E012689201064689
:10041000E2D503E0126892070646DDD51868032688
:10042000B04308431860FFF71DFF07461C4D1B4BE8
:1004300018680C210140606880008142ACD0FFF751
:1004400011FFC01BA842F2D9C6E70321CB03134911
:10045000896A0F240C401549095D94021A40240F43
:10046000134D2C5D9A4202D033049A4200E00E48AC
:1004700000F03AFF4443094B18680006000F0D498D
:10048000085CC4400E4804600320FFF707FF002605
:10049000304601B0F0BDC0460020024004100240CA
:1004A0008813000000127A00006CDC02FE140008C1
:1004B000EE140008DE140008014800687047C046CA
:1004C00008000020F0B587B004460120002C00D1C0
:1004D00045E204902078C007F94E05940CD071686D
:1004E0000C200140042900D090E03068800303D53F
:1004F0006068002800D120E12078800721D570684D
:100500000007800F0ED070680C210140082900D030
:100510009DE00320C003716801400120C0038142B7
:1005200000D094E030688007059C03D5E06801287E
:1005300000D002E13068F82188432169C9000143F5
:100540003160059C2078000724D42078400737D4F8
:100550002078C00600D4D3E005984069411D00D141
:10056000C2E0012800D030E1706B042101437163C7
:10057000706B012101437163FFF774FE0546706BD8
:10058000800700D5B4E0FFF76DFE411B0320022970
:10059000F5D9E4E1706AE169002900D181E0012127
:1005A00008437062FFF75EFE0546706A8007CCD490
:1005B000FFF758FE401B0228F7D9032007B0F0BD13
:1005C000012003900107F0690840029006D1F0690C
:1005D0000843F061F0690840069006980191E14FE8
:1005E0003868C0054AD4039804023868204338604C
:1005F000FFF738FE0546386820423FD1FFF732FE4C
:10060000401B6428F7D9032007B0F0BD7168014092
:10061000082908D10320C0037168014001200004AB
:10062000814200D161E7616801204704002900D1BF
:1006300017E1052900D12BE1012900D12CE10104AA
:1006400032688A43326081043068884327E1306829
:10065000059CE168002936D0012108433060FFF78E
:1006600001FE05463068800700D563E7FFF7FAFD15
:10067000401B0228F6D9032007B0F0BD059880681A
:10068000002800D1B6E0052800D1C9E0012800D13A
:10069000CAE0306A039988433062306A0421884393
:1006A000C5E0012188437062FFF7DCFD0546706AF2
:1006B000800700D449E7FFF7D5FD401B0228F6D993
:1006C000032007B0F0BD012188433060FFF7CAFD69
:1006D00005463068800700D433E7FFF7C3FD411BB0
:1006E00003200229F5D93AE1706B04218843706335
:1006F000706BF821884305998969C90001437163CA
:100700000598007880060BD571680C2001400C29F3
:1007100039D1706B800303D50598006A01280CD18C
:100720000598446A002C00D1E1E070680C2101407A
:10073000082905D1012C00D0C4E0049807B0F0BD11
:100740000120020631680492914331604706FFF7A9
:1007500089FD0546022C0BD1049C3068384200D13B
:10076000DEE0FFF77FFD411B03200229F5D9F6E00B
:100770003068384200D1BAE0FFF774FD411B032016
:100780000229F5D9EBE071680140082905D1032061
:10079000C003716801408142BBD0706B0599096A42
:1007A000002900D1A9E001210A04104370634C0420
:1007B000FFF758FD0546706B2042B1D1FFF752FD9F
:1007C000411B03200229F6D9C9E0706B04210143C3
:1007D0007163706B012188437063FFF743FD054629
:1007E000706B80078CD5FFF73DFD411B032002296C
:1007F000F6D9B4E0306A039988433062306A042144
:1008000088433062584CFFF72DFD0546306A80075B
:100810001DD5FFF727FD411B0320A142F6D99EE01D
:10082000306A042101433162306A0399084330621F
:100830004D4CFFF717FD0546306A800707D4FFF7D8
:1008400011FD401BA042F7D9032007B0F0BD02986C
:100850000028059C00D07BE6F06901998843F0618F
:1008600076E6010432688A4332608004316881434D
:100870003160FFF7F7FC0546059C3068384200D12F
:100880003AE6FFF7EFFC411B03206429F5D966E047
:10089000810432680A4332600104306808433060E2
:1008A000FFF7E0FC05463068384200D024E6FFF749
:1008B000D9FC401B6428F6D9032007B0F0BDC04620
:1008C000001002400320C20370680240F16A059CD8
:1008D000A36A9A42049D0DD10F221140236B9942C5
:1008E00008D191040840E16A8842284637D10020A7
:1008F00007B0F0BD284607B0F0BD01210A049043BF
:1009000070634C04FFF7AEFC0546706B204200D1CB
:1009100006E7FFF7A7FC411B03200229F5D91EE0DB
:10092000F06A0F218843059A116B0143F1627B2025
:10093000C00371688143D06A0843916A01437160C2
:10094000306820433060FFF78DFC04463068384241
:10095000CDD1FFF787FC011B03200229F6D907B090
:10096000F0BDC0460070004088130000401E010E1C
:1009700001D0012070470749074A506007480368C3
:100980000B4003218907591801600020906007215E
:1009900011607047FFFFFF0010E000E020ED00E075
:1009A000FEE7FEE77047704780B5FFF75FFC80BD4C
:1009B0007047000001204102044A13684B40136055
:1009C000034909888F4A1170506070471408004825
:1009D0002448004000B599B0FFF752FC0CAD281D2B
:1009E0003021FFF707FC00241594102010900126F9
:1009F0000F9602200C902846FFF764FD002803D0D4
:100A0000EFF3108072B6FEE70B940A940994072066
:100A1000089008A82146FFF793FC002803D0EFF3C5
:100A2000108072B6FEE70694F104714802680A432A
:100A30000260112109046F4FFA680A43FA60052128
:100A400049023A46143A13680B4313605521019149
:100A5000090313680B4313600F24A2013B46103BAC
:100A60001D6895431D603A460C3A13688B4313602A
:100A7000FF2529033A46083A13688B431360720234
:100A80003968079211433960B10482680A43826071
:100A9000FFF712FDE121490200F026FC411C5648F7
:100AA0000246103A11607107544A11602902544AF3
:100AB00013688B43136001461C390A682023059391
:100AC0001A430A600A6822430A60310200914D4BC2
:100AD00001E00599818101684906FCD543218181A6
:100AE0000168490608D40168490605D40168490629
:100AF00002D401684906F3D54D2181810168490678
:100B000008D40168490605D40168490602D4016881
:100B10004906F3D544218181069D0168490608D420
:100B20000168490605D40168490602D401684906EE
:100B3000F3D53E2181815968002908D159680029DF
:100B400005D15968002902D159680029F3D03246ED
:100B500019785D600468640608D40468640605D4E6
:100B60000468640602D404686406F3D58181214FC9
:100B70003C68079E74403C605C68002C08D15C684F
:100B8000002C05D15C68002C02D15C68002CF3D0ED
:100B90001C785D6005686D0608D405686D0605D48F
:100BA00005686D0602D405686D06F3D58481114F82
:100BB0003D68079E75403D60623910291646124A0D
:100BC00031D849007944898849008F441F002C009E
:100BD0002C002C002C00B3012C002C002C002C002D
:100BE0002C002C002C00C2012C002C00D101C0468E
:100BF00014100240140800481C48004000E100E0C6
:100C00001CE400E0700000200E150008302C00D11C
:100C1000BDE1312C00D1BEE1322C00D0BFE1E14D6D
:100C200029688024B0E10168490608D401684906B2
:100C300005D40168490602D401684906F3D53C2170
:100C400081810168490608D40168490605D4016814
:100C5000490602D401684906F3D54521818101681E
:100C6000490608D40168490605D40168490602D43A
:100C700001684906F3D5522181810468640608D4CD
:100C80000468640605D40468640602D40468640633
:100C9000F3D581810468640608D40468640605D429
:100CA0000468640602D404686406F3D54F24848182
:100CB0000468640608D40468640605D404686406FD
:100CC00002D404686406F3D581810168490608D41A
:100CD0000168490605D40168490602D4016849063D
:100CE000F3D52121049181810168490608D4016866
:100CF000490605D40168490602D401684906F3D5BE
:100D0000059981810168490608D40168490605D41E
:100D10000168490602D401684906F3D50199818129
:100D20000168490608D40168490605D401684906E6
:100D300002D401684906F3D56E248481016849060E
:100D400008D40168490605D40168490602D401683F
:100D50004906F3D57221039181810168490608D4BF
:100D60000168490605D40168490602D401684906AC
:100D7000F3D5652585810168490608D401684906CF
:100D800005D40168490602D401684906F3D56321F8
:100D9000029181810168490608D40168490605D499
:100DA0000168490602D401684906F3D56F218181A3
:100DB00007687F0608D407687F0605D407687F06A2
:100DC00002D407687F06F3D56727878107687F0607
:100DD00008D407687F0605D407687F0602D4076831
:100DE0007F06F3D584810468640608D40468640629
:100DF00005D40468640602D404686406F3D5692443
:100E000084810468640608D40468640605D4046810
:100E1000640602D404686406F3D57A2484810468E5
:100E2000640608D40468640605D40468640602D421
:100E300004686406F3D585810468640608D40468F0
:100E4000640605D40468640602D404686406F3D515
:100E5000642484810468640608D40468640605D4A4
:100E60000468640602D404686406F3D5059A828196
:100E70000468640608D40468640605D4046864063B
:100E800002D404686406F3D5029A82810468640679
:100E900008D40468640605D40468640602D40468AF
:100EA0006406F3D581810468640608D40468640686
:100EB00005D40468640602D404686406F3D56C247F
:100EC00084810468640608D40468640605D4046850
:100ED000640602D404686406F3D58181016849067A
:100EE00008D40168490605D40168490602D401689E
:100EF0004906F3D5039981810168490608D4016840
:100F0000490605D40168490602D401684906F3D5AB
:100F1000049981810168490600D5DAE5016849062E
:100F200000D5D6E50168490600D5D2E50168490635
:100F3000F0D5CEE5302C00D192E0312C00D195E0F7
:100F4000322C00D098E0E74C2168079D6940216071
:100F5000C1E5302C00D1EEE0312C00D1F1E0322C93
:100F600000D0F4E0DF4C2168009A51402160B2E5E6
:100F7000302C00D14AE1312C00D14DE1322C00D08F
:100F800050E1D84D296840244C402C60A3E5D54D54
:100F9000296880243DE1D34D296880243FE1002168
:100FA0003C2407E0140800488481891D545C1E29F4
:100FB00000D190E505686D0608D405686D0605D476
:100FC00005686D0602D405686D06F3D584810C466C
:100FD0003443145D05686D0608D405686D0605D4B4
:100FE00005686D0602D405686D06F3D584818C18FA
:100FF000A57807687F0608D407687F0605D40768C8
:101000007F0602D407687F06F3D58581E5780768F7
:101010007F0608D407687F0605D407687F0602D4D8
:1010200007687F06F3D58581257907687F0608D490
:1010300007687F0605D407687F0602D407687F0625
:10104000F3D58581647905686D06ADD405686D06B4
:10105000AAD405686D06A7D405686D06F3D5A3E785
:10106000A04C2168079DA943216034E59D4C21686F
:10107000079D294321602EE500213C2405E0848161
:10108000891D545C1E2900D125E505686D0608D42C
:1010900005686D0605D405686D0602D405686D0601
:1010A000F3D584810C463443145D05686D0608D47D
:1010B00005686D0605D405686D0602D405686D06E1
:1010C000F3D584818C18A57807687F0608D4076853
:1010D0007F0605D407687F0602D407687F06F3D52C
:1010E0008581E57807687F0608D407687F0605D400
:1010F00007687F0602D407687F06F3D585812579C6
:1011000007687F0608D407687F0605D407687F064E
:1011100002D407687F06F3D58581647905686D067A
:10112000ADD405686D06AAD405686D06A7D4056818
:101130006D06F3D5A3E76B4C2168009A91432160BB
:10114000C9E4684C2168009A11432160C3E400217E
:101150003C2405E08481891D545C1E2900D1BAE439
:1011600005686D0608D405686D0605D405686D062A
:1011700002D405686D06F3D584810C463443145DB2
:1011800005686D0608D405686D0605D405686D060A
:1011900002D405686D06F3D584818C18A57807689C
:1011A0007F0608D407687F0605D407687F0602D447
:1011B00007687F06F3D58581E57807687F0608D440
:1011C00007687F0605D407687F0602D407687F0694
:1011D000F3D58581257907687F0608D407687F06DF
:1011E00005D407687F0602D407687F06F3D585819A
:1011F000647905686D06ADD405686D06AAD40568E6
:101200006D06A7D405686D06F3D5A3E7354D2968AB
:101210004024A14329605EE4324D296840240C43F8
:101220002C6058E43C24069905E08481891D545CB7
:101230001E2900D14FE405686D0608D405686D06C7
:1012400005D405686D0602D405686D06F3D5848162
:101250000C463443145D05686D0608D405686D06B8
:1012600005D405686D0602D405686D06F3D5848142
:101270008C18A57807687F0608D407687F0605D410
:1012800007687F0602D407687F06F3D58581E57875
:1012900007687F0608D407687F0605D407687F06BD
:1012A00002D407687F06F3D58581257907687F0614
:1012B00008D407687F0605D407687F0602D407684C
:1012C0007F06F3D58581647905686D06ADD4056820
:1012D0006D06AAD405686D06A7D405686D06F3D51A
:1012E000A3E7C0461408004843088B421AD30022E3
:1012F00003098B4279D3030A8B425ED3030B8B42E3
:1013000042D3030C8B4227D30902FF2212BA030CEB
:101310008B4202D31212090203D0030B8B4233D348
:101320001AE0D3E0411A8041401C704703460B434A
:1013300071D443088B42F5D3002203098B4254D366
:10134000030A8B4239D3030B8B421DD3030C8B4210
:1013500002D394466EE0090AC30B8B4201D3CB0340
:10136000C01A5241830B8B4201D38B03C01A5241E6
:10137000430B8B4201D34B03C01A5241030B8B42E8
:1013800001D30B03C01A5241C30A8B4201D3CB02D3
:10139000C01A5241830A8B4201D38B02C01A5241B8
:1013A000430A8B4201D34B02C01A5241030A8B42BB
:1013B00001D30B02C01A5241CDD2C3098B4201D3D3
:1013C000CB01C01A524183098B4201D38B01C01A51
:1013D000524143098B4201D34B01C01A52410309C8
:1013E0008B4201D30B01C01A5241C3088B4201D377
:1013F000CB00C01A524183088B4201D38B00C01A24
:10140000524143088B4201D34B00C01A5241411A4A
:10141000524110007047CA0F00D04942031000D358
:101420004042534000229C4603098B422DD3030ABD
:101430008B4212D38901FC2212BA030A8B420CD3CD
:10144000890192118B4208D3890192118B4204D3F6
:10145000890137D0921100E08909C3098B4201D379
:10146000CB01C01A524183098B4201D38B01C01AB0
:10147000524143098B4201D34B01C01A5241030927
:101480008B4201D30B01C01A5241C3088B4201D3D6
:10149000CB00C01A524183088B4201D38B00C01A83
:1014A0005241D9D243088B4201D34B00C01A52415A
:1014B000411A00D201465241104663465B1000D3E8
:1014C0004042704763465B1000D3404201B50021A3
:1014D000004201D0C9430846C046C04602BD0000D4
:1014E00000000000000001020304060708090203CF
:1014F0000405060708090A0B0C0D0E0F1010010257
:10150000030405060708090A0B0C0D0E0F103C45D5
:1015100052524F522120556E7265636F676E697A21
:10152000656420636F6D6D616E64212000000000B2
:101530005015000800000020100000001C010008E9
:101540006015000810000020700600003C01000833
:10155000010000000400000000127A0000000000FA
:04000005080000C12E
:00000001FF
